{
  "contractName": "DStorage",
  "abi": [
    {
      "inputs": [],
      "payable": false,
      "stateMutability": "nonpayable",
      "type": "constructor"
    },
    {
      "anonymous": false,
      "inputs": [
        {
          "indexed": false,
          "internalType": "uint256",
          "name": "fileId",
          "type": "uint256"
        },
        {
          "indexed": false,
          "internalType": "string",
          "name": "fileHash",
          "type": "string"
        },
        {
          "indexed": false,
          "internalType": "uint256",
          "name": "fileSize",
          "type": "uint256"
        },
        {
          "indexed": false,
          "internalType": "string",
          "name": "fileType",
          "type": "string"
        },
        {
          "indexed": false,
          "internalType": "string",
          "name": "fileName",
          "type": "string"
        },
        {
          "indexed": false,
          "internalType": "string",
          "name": "fileDescription",
          "type": "string"
        },
        {
          "indexed": false,
          "internalType": "uint256",
          "name": "uploadTime",
          "type": "uint256"
        },
        {
          "indexed": false,
          "internalType": "address payable",
          "name": "uploader",
          "type": "address"
        }
      ],
      "name": "FileUploaded",
      "type": "event"
    },
    {
      "constant": true,
      "inputs": [],
      "name": "fileCount",
      "outputs": [
        {
          "internalType": "uint256",
          "name": "",
          "type": "uint256"
        }
      ],
      "payable": false,
      "stateMutability": "view",
      "type": "function"
    },
    {
      "constant": true,
      "inputs": [
        {
          "internalType": "uint256",
          "name": "",
          "type": "uint256"
        }
      ],
      "name": "files",
      "outputs": [
        {
          "internalType": "uint256",
          "name": "fileId",
          "type": "uint256"
        },
        {
          "internalType": "string",
          "name": "fileHash",
          "type": "string"
        },
        {
          "internalType": "uint256",
          "name": "fileSize",
          "type": "uint256"
        },
        {
          "internalType": "string",
          "name": "fileType",
          "type": "string"
        },
        {
          "internalType": "string",
          "name": "fileName",
          "type": "string"
        },
        {
          "internalType": "string",
          "name": "fileDescription",
          "type": "string"
        },
        {
          "internalType": "uint256",
          "name": "uploadTime",
          "type": "uint256"
        },
        {
          "internalType": "address payable",
          "name": "upload",
          "type": "address"
        }
      ],
      "payable": false,
      "stateMutability": "view",
      "type": "function"
    },
    {
      "constant": true,
      "inputs": [],
      "name": "name",
      "outputs": [
        {
          "internalType": "string",
          "name": "",
          "type": "string"
        }
      ],
      "payable": false,
      "stateMutability": "view",
      "type": "function"
    },
    {
      "constant": false,
      "inputs": [
        {
          "internalType": "string",
          "name": "_fileHash",
          "type": "string"
        },
        {
          "internalType": "uint256",
          "name": "_fileSize",
          "type": "uint256"
        },
        {
          "internalType": "string",
          "name": "_fileType",
          "type": "string"
        },
        {
          "internalType": "string",
          "name": "_fileName",
          "type": "string"
        },
        {
          "internalType": "string",
          "name": "_fileDescription",
          "type": "string"
        }
      ],
      "name": "uploadFile",
      "outputs": [],
      "payable": false,
      "stateMutability": "nonpayable",
      "type": "function"
    }
  ],
  "bytecode": "0x60806040526040518060400160405280600881526020017f4453746f726167650000000000000000000000000000000000000000000000008152506000908051906020019061004f929190610067565b50600060015534801561006157600080fd5b5061010c565b828054600181600116156101000203166002900490600052602060002090601f016020900481019282601f106100a857805160ff19168380011785556100d6565b828001600101855582156100d6579182015b828111156100d55782518255916020019190600101906100ba565b5b5090506100e391906100e7565b5090565b61010991905b808211156101055760008160009055506001016100ed565b5090565b90565b610e018061011b6000396000f3fe608060405234801561001057600080fd5b506004361061004c5760003560e01c806306fdde031461005157806343953519146100d4578063e82d9d33146100f2578063f4c714b41461037c575b600080fd5b6100596105af565b6040518080602001828103825283818151815260200191508051906020019080838360005b8381101561009957808201518184015260208101905061007e565b50505050905090810190601f1680156100c65780820380516001836020036101000a031916815260200191505b509250505060405180910390f35b6100dc61064d565b6040518082815260200191505060405180910390f35b61037a600480360360a081101561010857600080fd5b810190808035906020019064010000000081111561012557600080fd5b82018360208201111561013757600080fd5b8035906020019184600183028401116401000000008311171561015957600080fd5b91908080601f016020809104026020016040519081016040528093929190818152602001838380828437600081840152601f19601f82011690508083019250505050505050919291929080359060200190929190803590602001906401000000008111156101c657600080fd5b8201836020820111156101d857600080fd5b803590602001918460018302840111640100000000831117156101fa57600080fd5b91908080601f016020809104026020016040519081016040528093929190818152602001838380828437600081840152601f19601f8201169050808301925050505050505091929192908035906020019064010000000081111561025d57600080fd5b82018360208201111561026f57600080fd5b8035906020019184600183028401116401000000008311171561029157600080fd5b91908080601f016020809104026020016040519081016040528093929190818152602001838380828437600081840152601f19601f820116905080830192505050505050509192919290803590602001906401000000008111156102f457600080fd5b82018360208201111561030657600080fd5b8035906020019184600183028401116401000000008311171561032857600080fd5b91908080601f016020809104026020016040519081016040528093929190818152602001838380828437600081840152601f19601f820116905080830192505050505050509192919290505050610653565b005b6103a86004803603602081101561039257600080fd5b8101908080359060200190929190505050610a5f565b60405180898152602001806020018881526020018060200180602001806020018781526020018673ffffffffffffffffffffffffffffffffffffffff1673ffffffffffffffffffffffffffffffffffffffff16815260200185810385528c818151815260200191508051906020019080838360005b8381101561043857808201518184015260208101905061041d565b50505050905090810190601f1680156104655780820380516001836020036101000a031916815260200191505b5085810384528a818151815260200191508051906020019080838360005b8381101561049e578082015181840152602081019050610483565b50505050905090810190601f1680156104cb5780820380516001836020036101000a031916815260200191505b50858103835289818151815260200191508051906020019080838360005b838110156105045780820151818401526020810190506104e9565b50505050905090810190601f1680156105315780820380516001836020036101000a031916815260200191505b50858103825288818151815260200191508051906020019080838360005b8381101561056a57808201518184015260208101905061054f565b50505050905090810190601f1680156105975780820380516001836020036101000a031916815260200191505b509c5050505050505050505050505060405180910390f35b60008054600181600116156101000203166002900480601f0160208091040260200160405190810160405280929190818152602001828054600181600116156101000203166002900480156106455780601f1061061a57610100808354040283529160200191610645565b820191906000526020600020905b81548152906001019060200180831161062857829003601f168201915b505050505081565b60015481565b600085511161066157600080fd5b600083511161066f57600080fd5b600081511161067d57600080fd5b600082511161068b57600080fd5b600073ffffffffffffffffffffffffffffffffffffffff163373ffffffffffffffffffffffffffffffffffffffff1614156106c557600080fd5b600084116106d257600080fd5b60016000815480929190600101919050555060405180610100016040528060015481526020018681526020018581526020018481526020018381526020018281526020014281526020013373ffffffffffffffffffffffffffffffffffffffff16815250600260006001548152602001908152602001600020600082015181600001556020820151816001019080519060200190610771929190610d27565b50604082015181600201556060820151816003019080519060200190610798929190610d27565b5060808201518160040190805190602001906107b5929190610d27565b5060a08201518160050190805190602001906107d2929190610d27565b5060c0820151816006015560e08201518160070160006101000a81548173ffffffffffffffffffffffffffffffffffffffff021916908373ffffffffffffffffffffffffffffffffffffffff1602179055509050507f6e95bbaa37a5fdec42a312e049dea2fe6160ebe659214d3409b4f91f164c2f526001548686868686423360405180898152602001806020018881526020018060200180602001806020018781526020018673ffffffffffffffffffffffffffffffffffffffff1673ffffffffffffffffffffffffffffffffffffffff16815260200185810385528c818151815260200191508051906020019080838360005b838110156108e25780820151818401526020810190506108c7565b50505050905090810190601f16801561090f5780820380516001836020036101000a031916815260200191505b5085810384528a818151815260200191508051906020019080838360005b8381101561094857808201518184015260208101905061092d565b50505050905090810190601f1680156109755780820380516001836020036101000a031916815260200191505b50858103835289818151815260200191508051906020019080838360005b838110156109ae578082015181840152602081019050610993565b50505050905090810190601f1680156109db5780820380516001836020036101000a031916815260200191505b50858103825288818151815260200191508051906020019080838360005b83811015610a145780820151818401526020810190506109f9565b50505050905090810190601f168015610a415780820380516001836020036101000a031916815260200191505b509c5050505050505050505050505060405180910390a15050505050565b6002602052806000526040600020600091509050806000015490806001018054600181600116156101000203166002900480601f016020809104026020016040519081016040528092919081815260200182805460018160011615610100020316600290048015610b115780601f10610ae657610100808354040283529160200191610b11565b820191906000526020600020905b815481529060010190602001808311610af457829003601f168201915b505050505090806002015490806003018054600181600116156101000203166002900480601f016020809104026020016040519081016040528092919081815260200182805460018160011615610100020316600290048015610bb55780601f10610b8a57610100808354040283529160200191610bb5565b820191906000526020600020905b815481529060010190602001808311610b9857829003601f168201915b505050505090806004018054600181600116156101000203166002900480601f016020809104026020016040519081016040528092919081815260200182805460018160011615610100020316600290048015610c535780601f10610c2857610100808354040283529160200191610c53565b820191906000526020600020905b815481529060010190602001808311610c3657829003601f168201915b505050505090806005018054600181600116156101000203166002900480601f016020809104026020016040519081016040528092919081815260200182805460018160011615610100020316600290048015610cf15780601f10610cc657610100808354040283529160200191610cf1565b820191906000526020600020905b815481529060010190602001808311610cd457829003601f168201915b5050505050908060060154908060070160009054906101000a900473ffffffffffffffffffffffffffffffffffffffff16905088565b828054600181600116156101000203166002900490600052602060002090601f016020900481019282601f10610d6857805160ff1916838001178555610d96565b82800160010185558215610d96579182015b82811115610d95578251825591602001919060010190610d7a565b5b509050610da39190610da7565b5090565b610dc991905b80821115610dc5576000816000905550600101610dad565b5090565b9056fea265627a7a72315820f325c6af4d2f97f78806825e6ad2f5e1d63e7ced2cc616d271a754298406549c64736f6c63430005100032",
  "source": "pragma solidity ^0.5.0;\n\ncontract DStorage {\n  string public name = 'DStorage';\n  uint public fileCount = 0;\n  mapping(uint => File) public files;\n  // Struct\n  struct File {\n    uint fileId;\n    string fileHash;\n    uint fileSize;\n    string fileType;\n    string fileName;\n    string fileDescription;\n    uint uploadTime;\n    address payable upload;\n  }\n\n  // Event\n  event FileUploaded(\n    uint fileId,\n    string fileHash,\n    uint fileSize,\n    string fileType,\n    string fileName,\n    string fileDescription,\n    uint uploadTime,\n    address payable uploader\n  );\n\n  constructor() public {\n  }\n\n  // Upload File function\n\n  function uploadFile(string memory _fileHash, uint _fileSize, string memory _fileType, string memory _fileName, string memory _fileDescription) public {\n    // Make sure the file hash exists\n    require(bytes(_fileHash).length > 0);\n    // Make sure file type exists\n    require(bytes(_fileType).length > 0);\n    // Make sure file description exists\n    require(bytes(_fileDescription).length > 0);\n    // Make sure file fileName exists\n    require(bytes(_fileName).length > 0);\n    // Make sure uploader address exists\n    require(msg.sender != address(0));\n    // Make sure file size is more than 0\n    require(_fileSize>0);\n    // Increment file id\n    fileCount ++;\n\n    // Add File to the contract\n    files[fileCount] = File(fileCount, _fileHash,  _fileSize, _fileType, _fileName, _fileDescription, now, msg.sender);\n\n    // Trigger an event\n    emit FileUploaded(fileCount, _fileHash,  _fileSize, _fileType, _fileName, _fileDescription, now, msg.sender);\n  }\n}\n",
  "sourcePath": "/Users/melihcelik/Desktop/dropbox-blockchain/src/contracts/DStorage.sol",
  "compiler": {
    "name": "solc",
    "version": "0.5.16+commit.9c3226ce.Emscripten.clang"
  },
  "schemaVersion": "3.4.4",
  "updatedAt": "2022-01-16T21:31:26.068Z",
  "networkType": "ethereum",
  "devdoc": {
    "methods": {}
  },
  "userdoc": {
    "methods": {}
  }
}